:1000000022C046C045C044C043C02FC441C040C008
:100010003FC03EC03DC03CC03BC029C570C40000CD
:10002000000037000000000036000000000038002B
:100030000202020202020102040810200102000072
:1000400004003A06940611241FBECFE5D2E0DEBFBD
:10005000CDBF20E0A6E6B0E001C01D92AB3DB207E7
:10006000E1F710E0A0E6B0E0E6E7F3E102C00590BA
:100070000D92A636B107D9F710E0C2E2D0E003C076
:100080002197FE0141D8C132D107D1F738D567C9D0
:10009000B7CF8F929F92AF92BF92EF92FF920F9342
:1000A0001F93CF93DF93C2EDD0E086ECE82E80E083
:1000B000F82E0AEB10E06991F70181909190A190E0
:1000C000B1907F0170E090E080E0ECD6A501940152
:1000D0004FD620E030E040E85EE39AD7F801619324
:1000E0007193819391938F01F0E0C53DDF0719F77C
:1000F000DF91CF911F910F91FF90EF90BF90AF9044
:100100009F908F900895813021F48AB58F778ABDB2
:100110000895823019F48AB58F7DF9CF833021F4A8
:1001200080B78F7D80BF0895843019F48CB58F7DA2
:100130008CBD0895CF93DF9387FF09C08F7759F166
:10014000813059F1823059F1833059F18FEF282FE6
:1001500030E0F901E45CFF4F8491F901EA5CFF4F64
:10016000D491F901E05DFF4FC491CC2389F0811156
:10017000CADFEC2FF0E0EE0FFF1FE65DFF4FA59109
:10018000B4918FB7F894EC91D095DE23DC938FBFB8
:10019000DF91CF91089585E0DACF82E0D8CF84E077
:1001A000D6CF83E0D4CFCF93DF93282F30E0F9016F
:1001B000E45CFF4F8491F901EA5CFF4FD491F901AF
:1001C000E05DFF4FC491CC2399F081119CDFEC2FAF
:1001D000F0E0EE0FFF1FEC5DFF4FA591B491EC91A5
:1001E000ED2381E090E009F480E0DF91CF91089564
:1001F00080E090E0FACFCF93DF9387FF09C08F773D
:1002000071F1813071F1823071F1833071F18FEFD2
:1002100090E0FC01EA5CFF4F2491805D9F4FFC0160
:1002200084918823C9F090E0880F991FFC01E25E59
:10023000FF4FA591B491FC01E65DFF4FC591D491AC
:10024000611115C09FB7F8948C91209582238C93EF
:100250008881282328839FBFDF91CF91089585E06F
:10026000D7CF82E0D5CF84E0D3CF83E0D1CF623047
:1002700051F49FB7F8943C91822F809583238C93FF
:10028000E8812E2BE7CF8FB7F894EC912E2B2C938F
:100290008FBFE2CF3FB7F8948091B6009091B7003E
:1002A000A091B800B091B90022B708B601FE05C010
:1002B0002F3F19F00196A11DB11D3FBFBA2FA92FE5
:1002C000982F8827BC01CD01620F711D811D911DE2
:1002D00042E0660F771F881F991F4A95D1F708954E
:1002E000CF92DF92EF92FF92CF93DF936B017C016D
:1002F000D1DFEB01CFDF6C1B7D0B683E7340A0F0BC
:10030000C114D104E104F10439F4DF91CF91FF90DD
:10031000EF90DF90CF90089581E0C81AD108E108EE
:10032000F108C851DC4FE6CFC114D104E104F10457
:1003300009F7EBCF9091D6008091D500891B8F7083
:100340000895F8DF882391F09091D6008091D50030
:100350009817E1F3E091D600EF5FEF70E093D600DD
:10036000F0E0EA59FF4F808190E008958FEF9FEF12
:1003700008951092D6001092D5001092910010921C
:100380009200809395001092940010929300109226
:10039000AF001092AE00C29AC09ABA9AB89888EA92
:1003A0008DB980EF8EB908957F928F929F92AF9210
:1003B000BF92CF92DF92EF92FF920F931F93CF9352
:1003C000DF9300D000D000D01F92CDB7DEB7042F4E
:1003D00010E030E020E068017901D62AB701A601DB
:1003E000682B8B0122273327702EBB27A72F962F30
:1003F000852F982E8C2CE82EF12C2C2D30E0F0E05F
:10040000E0E080919A0090919B00E817F907B0F521
:10041000A091A000482DD92CC72CAA2369F0B0E0E8
:10042000C801BD0160D6C92ECD01B7015CD6D92E59
:10043000CD01B90158D6492FA091A600A090A100E6
:10044000B090A2008091A300A81398C0CF0163E0F0
:1004500070E049D68A0D9B1DA091A300A80FB92F6B
:10046000B11DCC92A091A400A80FB92FB11DDC92B0
:100470005091A500850F911DDC014C933196E2311E
:10048000F10509F0BECF8091A1009091A200892BC7
:1004900009F460C0FFDE0091A7001091A800209130
:1004A000A9003091AA00601B710B820B930B6C3278
:1004B00071408105910570F3F89480919C009091B2
:1004C0009D009A838983E091A100F091A200DF0151
:1004D000119680818F83E091AB00F091AC00908108
:1004E0008091AD00982B9E839081809589238D8388
:1004F0008D818C8388E08B835E816D814F813B8110
:100500002C8189819A81508347FD252F3A9520833C
:10051000262F39F0441F00C000006083000000C097
:10052000F2CF38E04D9160830000019761F7F093BE
:10053000AC00E093AB004F833B832C839A83898389
:100540007894A8DE6093A7007093A8008093A90018
:100550009093AA0027960FB6F894DEBF0FBECDBFCA
:10056000DF91CF911F910F91FF90EF90DF90CF908F
:10057000BF90AF909F908F907F900895CF01880F8C
:10058000991F880F991F8A0D9B1DA80FB92FB11DA8
:100590001C9262CFCF93DF93C82FD0E0CBDE8823AD
:1005A00041F0CFDEED2FF0E0E957FF4F8083DF5FB2
:1005B000F5CFC23009F05EC0809187008C3F09F012
:1005C00056C0D0918800DA3FC9F41092D20089E178
:1005D0008093D3008093D4005CDDC091980061E0EB
:1005E0008C2F09DE8C2FA6DD64E670E080E090E0C1
:1005F00077DE62E08C2FDF91CF91FDCDDB3F69F498
:1006000089E18093D20084E18093D3008EE18093CE
:10061000D4003FDDC0919700E2CFDC3F51F462E3AC
:1006200070E080E090E05CDEF0E0E0E0DF91CF9110
:100630000994C9E1C093D2001092D300C093D400B2
:1006400028DDC093D2001092D300C093D40021DDE6
:10065000C093D2001092D300C093D4001ADD8D2F26
:1006600088DE8AEC92E09093AF008093AE00DF9139
:10067000CF910895C33049F440918900609188007A
:1006800080918700DF91CF918FCEC43081F7809128
:10069000890090918800209187002093D200909348
:1006A000D3008093D400DF91CF91F3CC2F923F926F
:1006B0004F925F926F927F928F929F92AF92BF9272
:1006C000CF92DF92EF92FF920F931F93CF93DF931E
:1006D00000D000D000D0CDB7DEB7209186002C83AB
:1006E00082ED90E09A83898306EC10E08AEB282E55
:1006F00080E0382EE981FA812191FA83E9832B8306
:10070000622F70E090E080E0CFD36B017C01F801B4
:1007100081909190A190B1908F01A50194018DD30A
:10072000882309F440C0F1014080518062807380C9
:10073000A3019201C501B4011CD34B015C01F80176
:10074000B292A29292928292FE83ED8320E030E0F8
:10075000A901C301B20158D418163CF4A5019401B3
:10076000C701B6016AD387FD10C020E030E0A901BF
:10077000C301B20162D387FF60C0A5019401C70124
:10078000B60142D418160CF05BC0FB816F2F70E0ED
:1007900090E080E087D3ED81FE8160837183828366
:1007A0009383F1E0FC8394E0290E311CE981FA8106
:1007B000E55DF04009F09ECF8C8180938600882310
:1007C00019F16091CE007091CF008091D00090918E
:1007D000D10037D36B836091CA007091CB008091B8
:1007E000CC009091CD002DD369836091C6007091AB
:1007F000C7008091C8009091C90023D3862F4B81F8
:100800006981D2DD1092860026960FB6F894DEBF7D
:100810000FBECDBFDF91CF911F910F91FF90EF9051
:10082000DF90CF90BF90AF909F908F907F906F9010
:100830005F904F903F902F90089521E02C83B3CF8D
:1008400081E08C83B0CF86C261E090E080E0FBDF86
:1008500078DD682F81E090E0F6DF62E370E080E011
:1008600090E03EDDF0E0E0E009941F920F920FB6B9
:100870000F9211242F933F938F939F93AF93BF9326
:100880008091B2009091B300A091B400B091B500F6
:100890003091B10023E0230F2D3768F126E8230FB4
:1008A0000296A11DB11D2093B1008093B2009093D8
:1008B000B300A093B400B093B5008091B6009091BE
:1008C000B700A091B800B091B9000196A11DB11D6B
:1008D0008093B6009093B700A093B800B093B9008E
:1008E000BF91AF919F918F913F912F910F900FBE2C
:1008F0000F901F9018950196A11DB11DD4CF1F9286
:100900000F920FB60F9211240F931F932F933F93C3
:100910004F935F936F937F938F939F93AF93BF9307
:10092000CF93EF93FF9380919600823009F476C0C5
:10093000C8F4882399F1813009F456C0FF91EF91F2
:10094000CF91BF91AF919F918F917F916F915F9167
:100950004F913F912F911F910F910F900FBE0F90CC
:100960001F901895843009F45FC0B8F1853031F7D5
:1009700084E0809396009FB18091D5008F5F8F7047
:100980002091D600281709F470C08093D500E0911B
:10099000D500F0E0EA59FF4F908319C08FB188234A
:1009A00031F08FB1869590919500891319C0789B8D
:1009B00012C0E0919300F0919400309729F080915B
:1009C000920080939100099581E0809396001FB872
:1009D000B89A8EE721C084E0F8CF8FB1882321F048
:1009E000B89888EA8DB917C08091910090919200D3
:1009F0009817B1F3809191008F5F8F708093910071
:100A0000E0919100F0E0EA58FF4F80818FB982E0D9
:100A100080939600B89A80E78EB990CF83E0809358
:100A20009600B8981FB8D5CF85E080939600B89807
:100A300080E78EB90091AE001091AF00011511054D
:100A400009F47CCFC091D5008091D6008C1709F4B1
:100A500075CF8EB18E7AE9F3759B70CF6BDC90E029
:100A6000F8010995C093D60069CFB898B2CF1F920C
:100A70000F920FB60F9211240F931F932F933F9352
:100A80004F935F936F937F938F939F93AF93BF9396
:100A9000CF93EF93FF930091AE001091AF0001153B
:100AA000110561F0C091D5008091D6008C1731F00E
:100AB00041DC90E0F8010995C093D60010929600B1
:100AC000B898B29B1AC0B09BFCCF88EA8DB980EF72
:100AD0008EB9FF91EF91CF91BF91AF919F918F917F
:100AE0007F916F915F914F913F912F911F910F9146
:100AF0000F900FBE0F901F90189588EFE7CF81B72A
:100B000081BF8AB582608ABD8AB581608ABD83B79C
:100B1000887F836083BF789489B7826089BF80B7FC
:100B2000807F80BF80B7806880BF80B7806480BFCF
:100B30008CB580648CBD8FEF8DBD80B7876080BF22
:100B400086B1876886B9379A62E083E054DB62E059
:100B500084E051DB62E085E04EDB80919E00909165
:100B60009F0097FD05C061E046DB80919E00E2DAC0
:100B700081E08093990090E080E0E4D0813009F03A
:100B80004AC081E090E0DED0F4DB8AEC92E0909302
:100B9000AF008093AE0060E090E080E054DE109201
:100BA000D20082E38093D3001092D40082E090E0E0
:100BB000C9D0833009F584E08093980085E0809364
:100BC000970081E08093B00064DA04E214E0C9E1A8
:100BD000D1E06CDD8091B000811146C083E0E3DAA2
:100BE000019709F584E0DFDA0197E9F485E0DBDAC3
:100BF0000197C9F45BDDF2CF82E090E0A3D08430AE
:100C000029F485E08093980083E0D9CF83E0809336
:100C1000980084E0D4CF82E38093D2001092D30076
:100C20001092D400D1CF83E0BEDA63E0892B51F07B
:100C300084E0B9DA64E0892B29F085E0B4DA892B05
:100C400021F465E082E090E0FEDD8EE792DB109318
:100C5000AF000093AE00C093D200C093D3001092B7
:100C6000D40017DAD093B00062E370E080E090E047
:100C700037DBAFCF109299001092A0001092A7001E
:100C80001092A8001092A9001092AA0081E080930F
:100C9000A6008093A3001092A40082E08093A50098
:100CA00086E390E090939D0080939C0033D29093D4
:100CB000A2008093A100009771F126E3FC0111923C
:100CC0002A95E9F782E190E090939B0080939A0047
:100CD00081E090E090939F0080939E008091990026
:100CE000882329F061E081E086DA81E023DAE1E31C
:100CF000F0E0E491F0E0EE0FFF1FE65DFF4F85911D
:100D000094919093AC008093AB00E7E3F0E0E49122
:100D1000E093AD00089510929D0010929C001092F7
:100D20009B0010929A00D4CF8091A1009091A200D4
:100D30008DD280919E0090919F0097FD02C060E04F
:100D40005ACA0895E199FECF9FBB8EBBE09A9927BE
:100D50008DB30895262FE199FECF1CBA9FBB8EBBA1
:100D60002DBB0FB6F894E29AE19A0FBE0196089552
:100D70005058BB27AA270ED00DC1FED030F003D1AA
:100D800020F031F49F3F11F41EF4F3C00EF4E0950F
:100D9000E7FBE9C0E92F0FD180F3BA1762077307A9
:100DA0008407950718F071F49EF527C10EF4E095BD
:100DB0000B2EBA2FA02D0B01B90190010C01CA0115
:100DC000A0011124FF27591B99F0593F50F4503EC0
:100DD00068F11A16F040A22F232F342F4427585FB2
:100DE000F3CF469537952795A795F0405395C9F7CA
:100DF0007EF41F16BA0B620B730B840BBAF0915082
:100E0000A1F0FF0FBB1F661F771F881FC2F70EC020
:100E1000BA0F621F731F841F48F4879577956795F3
:100E2000B795F7959E3F08F0B3CF9395880F08F0DC
:100E30009927EE0F97958795089571D008F481E072
:100E4000089504D06894B111D9C00895BCD088F039
:100E50009F5790F0B92F9927B751A0F0D1F0660FA6
:100E6000771F881F991F1AF0BA95C9F712C0B130C1
:100E700081F0C3D0B1E00895C0C0672F782F8827D4
:100E8000B85F39F0B93FCCF3869577956795B39500
:100E9000D9F73EF490958095709561957F4F8F4F6F
:100EA0009F4F0895E89409C097FB3EF49095809574
:100EB000709561957F4F8F4F9F4F9923A9F0F92F20
:100EC00096E9BB279395F695879577956795B7959E
:100ED000F111F8CFFAF4BB0F11F460FF1BC06F5F84
:100EE0007F4F8F4F9F4F16C0882311F096E911C096
:100EF000772321F09EE8872F762F05C0662371F0B7
:100F000096E8862F70E060E02AF09A95660F771FCA
:100F1000881FDAF7880F9695879597F90895990FA6
:100F20000008550FAA0BE0E8FEEF16161706E807B3
:100F3000F907C0F012161306E407F50798F0621BD4
:100F4000730B840B950B39F40A2661F0232B242BA9
:100F5000252B21F408950A2609F4A140A6958FEFC8
:100F6000811D811D089597F99F6780E870E060E01A
:100F700008959FEF80EC089500240A941616170632
:100F800018060906089500240A941216130614067A
:100F900005060895092E0394000C11F4882352F0DD
:100FA000BB0F40F4BF2B11F460FF04C06F5F7F4F95
:100FB0008F4F9F4F089557FD9058440F551F59F07C
:100FC0005F3F71F04795880F97FB991F61F09F3F36
:100FD00079F087950895121613061406551FF2CF5F
:100FE0004695F1DF08C0161617061806991FF1CFAF
:100FF00086957105610508940895E894BB276627D6
:101000007727CB0197F908958ADF08F48FEF0895C9
:101010000AD0C0CFB1DF28F0B6DF18F0952309F071
:10102000A2CFA7CFEBCFC7DFA8F39923D9F35523DE
:10103000C9F3950F50E0551FAA27EE27FF27BB27BE
:1010400000240894679520F4E20FF31FB41F0A1ED2
:10105000220F331F441FAA1F6695A9F7779530F416
:10106000F30FB41F0A1E121E08F46395330F441FBA
:10107000AA1F221F769599F7879520F4B40F0A1EB0
:10108000121E631F440FAA1F221F331F8695A9F744
:10109000862F712D602D11249F5750408AF0E1F06A
:1010A00088234AF0EE0FFF1FBB1F661F771F881FA4
:1010B00091505040A9F79E3F510570F054CF9ECFFC
:1010C0005F3FECF3983EDCF3869577956795B7958F
:1010D000F795E7959F5FC1F7FE2B880F911D9695B9
:1010E000879597F908950024552704C0080E591FC5
:1010F000880F991F009729F076956795B8F37105C9
:10110000B9F7802D952F0895EE0FFF1F0590F491EC
:10111000E02D09940F931F93CF93DF9382309105B5
:1011200010F482E090E0E091D900F091DA0030E034
:1011300020E0B0E0A0E0309799F42115310509F4E2
:101140004AC0281B390B24303105D8F58A819B8190
:101150006115710589F1FB0193838283FE0111C042
:10116000408151810281138148175907E0F04817E7
:10117000590799F4109761F012960C9312971396F1
:101180001C933296CF01DF91CF911F910F9108955B
:101190000093D9001093DA00F4CF2115310551F0F6
:1011A0004217530738F0A901DB019A01BD01DF01A5
:1011B000F801C1CFEF01F9CF9093DA008093D90005
:1011C000CDCFFE01E20FF31F81939193225031099D
:1011D00039832883D7CF2091D7003091D800232B93
:1011E00041F420916200309163003093D800209345
:1011F000D70020916000309161002115310541F444
:101200002DB73EB74091640050916500241B350B0B
:10121000E091D700F091D800E217F307A0F42E1B5D
:101220003F0B2817390778F0AC014E5F5F4F24174A
:10123000350748F04E0F5F1F5093D8004093D700FA
:10124000819391939FCFF0E0E0E09CCFCF93DF9329
:101250000097E9F0FC01329713821282A091D90025
:10126000B091DA00ED0130E020E01097A1F4208188
:101270003181820F931F2091D7003091D800281719
:10128000390709F061C0F093D800E093D700DF91EF
:10129000CF910895EA01CE17DF07E8F54A815B8117
:1012A0009E0141155105B1F7E901FB83EA8349919C
:1012B0005991C40FD51FEC17FD0761F4808191810E
:1012C0000296840F951FE901998388838281938117
:1012D0009B838A83F0E0E0E012968D919C911397B6
:1012E0000097B9F52D913C911197CD010296820F8F
:1012F000931F2091D7003091D8002817390739F66D
:10130000309751F51092DA001092D900B093D800BE
:10131000A093D700BCCFD383C28340815181840F77
:10132000951FC817D90761F44E5F5F4F8881998177
:10133000480F591F518340838A819B819383828305
:101340002115310509F0B0CFF093DA00E093D90010
:101350009ECFFD01DC01C0CF13821282D7CF10E0F7
:10136000C2E2D0E003C0FE01CFDE2196C332D10736
:06137000D1F7F894FFCF55
:061376000000DB00800016
:00000001FF
